{
  "_format": "hh-sol-artifact-1",
  "contractName": "AgentIdentity",
  "sourceName": "contracts/AgentIdentity.sol",
  "abi": [
    {
      "inputs": [],
      "stateMutability": "nonpayable",
      "type": "constructor"
    },
    {
      "inputs": [
        {
          "internalType": "address",
          "name": "sender",
          "type": "address"
        },
        {
          "internalType": "uint256",
          "name": "tokenId",
          "type": "uint256"
        },
        {
          "internalType": "address",
          "name": "owner",
          "type": "address"
        }
      ],
      "name": "ERC721IncorrectOwner",
      "type": "error"
    },
    {
      "inputs": [
        {
          "internalType": "address",
          "name": "operator",
          "type": "address"
        },
        {
          "internalType": "uint256",
          "name": "tokenId",
          "type": "uint256"
        }
      ],
      "name": "ERC721InsufficientApproval",
      "type": "error"
    },
    {
      "inputs": [
        {
          "internalType": "address",
          "name": "approver",
          "type": "address"
        }
      ],
      "name": "ERC721InvalidApprover",
      "type": "error"
    },
    {
      "inputs": [
        {
          "internalType": "address",
          "name": "operator",
          "type": "address"
        }
      ],
      "name": "ERC721InvalidOperator",
      "type": "error"
    },
    {
      "inputs": [
        {
          "internalType": "address",
          "name": "owner",
          "type": "address"
        }
      ],
      "name": "ERC721InvalidOwner",
      "type": "error"
    },
    {
      "inputs": [
        {
          "internalType": "address",
          "name": "receiver",
          "type": "address"
        }
      ],
      "name": "ERC721InvalidReceiver",
      "type": "error"
    },
    {
      "inputs": [
        {
          "internalType": "address",
          "name": "sender",
          "type": "address"
        }
      ],
      "name": "ERC721InvalidSender",
      "type": "error"
    },
    {
      "inputs": [
        {
          "internalType": "uint256",
          "name": "tokenId",
          "type": "uint256"
        }
      ],
      "name": "ERC721NonexistentToken",
      "type": "error"
    },
    {
      "inputs": [
        {
          "internalType": "address",
          "name": "owner",
          "type": "address"
        }
      ],
      "name": "OwnableInvalidOwner",
      "type": "error"
    },
    {
      "inputs": [
        {
          "internalType": "address",
          "name": "account",
          "type": "address"
        }
      ],
      "name": "OwnableUnauthorizedAccount",
      "type": "error"
    },
    {
      "anonymous": false,
      "inputs": [
        {
          "indexed": true,
          "internalType": "uint256",
          "name": "tokenId",
          "type": "uint256"
        },
        {
          "indexed": false,
          "internalType": "uint256",
          "name": "timestamp",
          "type": "uint256"
        }
      ],
      "name": "AgentDeactivated",
      "type": "event"
    },
    {
      "anonymous": false,
      "inputs": [
        {
          "indexed": true,
          "internalType": "uint256",
          "name": "tokenId",
          "type": "uint256"
        },
        {
          "indexed": true,
          "internalType": "address",
          "name": "controller",
          "type": "address"
        },
        {
          "indexed": false,
          "internalType": "string",
          "name": "name",
          "type": "string"
        },
        {
          "indexed": false,
          "internalType": "string",
          "name": "model",
          "type": "string"
        },
        {
          "indexed": false,
          "internalType": "uint256",
          "name": "timestamp",
          "type": "uint256"
        }
      ],
      "name": "AgentRegistered",
      "type": "event"
    },
    {
      "anonymous": false,
      "inputs": [
        {
          "indexed": true,
          "internalType": "address",
          "name": "owner",
          "type": "address"
        },
        {
          "indexed": true,
          "internalType": "address",
          "name": "approved",
          "type": "address"
        },
        {
          "indexed": true,
          "internalType": "uint256",
          "name": "tokenId",
          "type": "uint256"
        }
      ],
      "name": "Approval",
      "type": "event"
    },
    {
      "anonymous": false,
      "inputs": [
        {
          "indexed": true,
          "internalType": "address",
          "name": "owner",
          "type": "address"
        },
        {
          "indexed": true,
          "internalType": "address",
          "name": "operator",
          "type": "address"
        },
        {
          "indexed": false,
          "internalType": "bool",
          "name": "approved",
          "type": "bool"
        }
      ],
      "name": "ApprovalForAll",
      "type": "event"
    },
    {
      "anonymous": false,
      "inputs": [
        {
          "indexed": true,
          "internalType": "uint256",
          "name": "tokenId",
          "type": "uint256"
        },
        {
          "indexed": true,
          "internalType": "bytes32",
          "name": "decisionHash",
          "type": "bytes32"
        },
        {
          "indexed": true,
          "internalType": "uint256",
          "name": "decisionCount",
          "type": "uint256"
        },
        {
          "indexed": false,
          "internalType": "uint256",
          "name": "timestamp",
          "type": "uint256"
        }
      ],
      "name": "DecisionRecorded",
      "type": "event"
    },
    {
      "anonymous": false,
      "inputs": [
        {
          "indexed": true,
          "internalType": "address",
          "name": "previousOwner",
          "type": "address"
        },
        {
          "indexed": true,
          "internalType": "address",
          "name": "newOwner",
          "type": "address"
        }
      ],
      "name": "OwnershipTransferred",
      "type": "event"
    },
    {
      "anonymous": false,
      "inputs": [
        {
          "indexed": true,
          "internalType": "address",
          "name": "from",
          "type": "address"
        },
        {
          "indexed": true,
          "internalType": "address",
          "name": "to",
          "type": "address"
        },
        {
          "indexed": true,
          "internalType": "uint256",
          "name": "tokenId",
          "type": "uint256"
        }
      ],
      "name": "Transfer",
      "type": "event"
    },
    {
      "inputs": [
        {
          "internalType": "address",
          "name": "to",
          "type": "address"
        },
        {
          "internalType": "uint256",
          "name": "tokenId",
          "type": "uint256"
        }
      ],
      "name": "approve",
      "outputs": [],
      "stateMutability": "nonpayable",
      "type": "function"
    },
    {
      "inputs": [
        {
          "internalType": "address",
          "name": "owner",
          "type": "address"
        }
      ],
      "name": "balanceOf",
      "outputs": [
        {
          "internalType": "uint256",
          "name": "",
          "type": "uint256"
        }
      ],
      "stateMutability": "view",
      "type": "function"
    },
    {
      "inputs": [
        {
          "internalType": "uint256",
          "name": "tokenId",
          "type": "uint256"
        }
      ],
      "name": "deactivateAgent",
      "outputs": [],
      "stateMutability": "nonpayable",
      "type": "function"
    },
    {
      "inputs": [
        {
          "internalType": "uint256",
          "name": "tokenId",
          "type": "uint256"
        }
      ],
      "name": "getApproved",
      "outputs": [
        {
          "internalType": "address",
          "name": "",
          "type": "address"
        }
      ],
      "stateMutability": "view",
      "type": "function"
    },
    {
      "inputs": [
        {
          "internalType": "uint256",
          "name": "tokenId",
          "type": "uint256"
        }
      ],
      "name": "getProfile",
      "outputs": [
        {
          "components": [
            {
              "internalType": "string",
              "name": "name",
              "type": "string"
            },
            {
              "internalType": "string",
              "name": "description",
              "type": "string"
            },
            {
              "internalType": "string",
              "name": "model",
              "type": "string"
            },
            {
              "internalType": "address",
              "name": "controller",
              "type": "address"
            },
            {
              "internalType": "uint256",
              "name": "decisionCount",
              "type": "uint256"
            },
            {
              "internalType": "uint256",
              "name": "createdAt",
              "type": "uint256"
            },
            {
              "internalType": "uint256",
              "name": "lastDecisionAt",
              "type": "uint256"
            },
            {
              "internalType": "bool",
              "name": "active",
              "type": "bool"
            }
          ],
          "internalType": "struct AgentIdentity.AgentProfile",
          "name": "",
          "type": "tuple"
        }
      ],
      "stateMutability": "view",
      "type": "function"
    },
    {
      "inputs": [
        {
          "internalType": "address",
          "name": "owner",
          "type": "address"
        },
        {
          "internalType": "address",
          "name": "operator",
          "type": "address"
        }
      ],
      "name": "isApprovedForAll",
      "outputs": [
        {
          "internalType": "bool",
          "name": "",
          "type": "bool"
        }
      ],
      "stateMutability": "view",
      "type": "function"
    },
    {
      "inputs": [],
      "name": "name",
      "outputs": [
        {
          "internalType": "string",
          "name": "",
          "type": "string"
        }
      ],
      "stateMutability": "view",
      "type": "function"
    },
    {
      "inputs": [],
      "name": "owner",
      "outputs": [
        {
          "internalType": "address",
          "name": "",
          "type": "address"
        }
      ],
      "stateMutability": "view",
      "type": "function"
    },
    {
      "inputs": [
        {
          "internalType": "uint256",
          "name": "tokenId",
          "type": "uint256"
        }
      ],
      "name": "ownerOf",
      "outputs": [
        {
          "internalType": "address",
          "name": "",
          "type": "address"
        }
      ],
      "stateMutability": "view",
      "type": "function"
    },
    {
      "inputs": [
        {
          "internalType": "uint256",
          "name": "",
          "type": "uint256"
        }
      ],
      "name": "profiles",
      "outputs": [
        {
          "internalType": "string",
          "name": "name",
          "type": "string"
        },
        {
          "internalType": "string",
          "name": "description",
          "type": "string"
        },
        {
          "internalType": "string",
          "name": "model",
          "type": "string"
        },
        {
          "internalType": "address",
          "name": "controller",
          "type": "address"
        },
        {
          "internalType": "uint256",
          "name": "decisionCount",
          "type": "uint256"
        },
        {
          "internalType": "uint256",
          "name": "createdAt",
          "type": "uint256"
        },
        {
          "internalType": "uint256",
          "name": "lastDecisionAt",
          "type": "uint256"
        },
        {
          "internalType": "bool",
          "name": "active",
          "type": "bool"
        }
      ],
      "stateMutability": "view",
      "type": "function"
    },
    {
      "inputs": [
        {
          "internalType": "uint256",
          "name": "tokenId",
          "type": "uint256"
        },
        {
          "internalType": "bytes32",
          "name": "decisionHash",
          "type": "bytes32"
        }
      ],
      "name": "recordDecision",
      "outputs": [],
      "stateMutability": "nonpayable",
      "type": "function"
    },
    {
      "inputs": [
        {
          "internalType": "address",
          "name": "controller",
          "type": "address"
        },
        {
          "internalType": "string",
          "name": "name",
          "type": "string"
        },
        {
          "internalType": "string",
          "name": "description",
          "type": "string"
        },
        {
          "internalType": "string",
          "name": "model",
          "type": "string"
        }
      ],
      "name": "registerAgent",
      "outputs": [
        {
          "internalType": "uint256",
          "name": "tokenId",
          "type": "uint256"
        }
      ],
      "stateMutability": "nonpayable",
      "type": "function"
    },
    {
      "inputs": [],
      "name": "renounceOwnership",
      "outputs": [],
      "stateMutability": "nonpayable",
      "type": "function"
    },
    {
      "inputs": [
        {
          "internalType": "address",
          "name": "from",
          "type": "address"
        },
        {
          "internalType": "address",
          "name": "to",
          "type": "address"
        },
        {
          "internalType": "uint256",
          "name": "tokenId",
          "type": "uint256"
        }
      ],
      "name": "safeTransferFrom",
      "outputs": [],
      "stateMutability": "nonpayable",
      "type": "function"
    },
    {
      "inputs": [
        {
          "internalType": "address",
          "name": "from",
          "type": "address"
        },
        {
          "internalType": "address",
          "name": "to",
          "type": "address"
        },
        {
          "internalType": "uint256",
          "name": "tokenId",
          "type": "uint256"
        },
        {
          "internalType": "bytes",
          "name": "data",
          "type": "bytes"
        }
      ],
      "name": "safeTransferFrom",
      "outputs": [],
      "stateMutability": "nonpayable",
      "type": "function"
    },
    {
      "inputs": [
        {
          "internalType": "uint256",
          "name": "tokenId",
          "type": "uint256"
        },
        {
          "internalType": "string",
          "name": "uri",
          "type": "string"
        }
      ],
      "name": "setAgentURI",
      "outputs": [],
      "stateMutability": "nonpayable",
      "type": "function"
    },
    {
      "inputs": [
        {
          "internalType": "address",
          "name": "operator",
          "type": "address"
        },
        {
          "internalType": "bool",
          "name": "approved",
          "type": "bool"
        }
      ],
      "name": "setApprovalForAll",
      "outputs": [],
      "stateMutability": "nonpayable",
      "type": "function"
    },
    {
      "inputs": [
        {
          "internalType": "bytes4",
          "name": "interfaceId",
          "type": "bytes4"
        }
      ],
      "name": "supportsInterface",
      "outputs": [
        {
          "internalType": "bool",
          "name": "",
          "type": "bool"
        }
      ],
      "stateMutability": "view",
      "type": "function"
    },
    {
      "inputs": [],
      "name": "symbol",
      "outputs": [
        {
          "internalType": "string",
          "name": "",
          "type": "string"
        }
      ],
      "stateMutability": "view",
      "type": "function"
    },
    {
      "inputs": [
        {
          "internalType": "address",
          "name": "",
          "type": "address"
        }
      ],
      "name": "tokenIdByController",
      "outputs": [
        {
          "internalType": "uint256",
          "name": "",
          "type": "uint256"
        }
      ],
      "stateMutability": "view",
      "type": "function"
    },
    {
      "inputs": [
        {
          "internalType": "uint256",
          "name": "tokenId",
          "type": "uint256"
        }
      ],
      "name": "tokenURI",
      "outputs": [
        {
          "internalType": "string",
          "name": "",
          "type": "string"
        }
      ],
      "stateMutability": "view",
      "type": "function"
    },
    {
      "inputs": [],
      "name": "totalAgents",
      "outputs": [
        {
          "internalType": "uint256",
          "name": "",
          "type": "uint256"
        }
      ],
      "stateMutability": "view",
      "type": "function"
    },
    {
      "inputs": [
        {
          "internalType": "address",
          "name": "from",
          "type": "address"
        },
        {
          "internalType": "address",
          "name": "to",
          "type": "address"
        },
        {
          "internalType": "uint256",
          "name": "tokenId",
          "type": "uint256"
        }
      ],
      "name": "transferFrom",
      "outputs": [],
      "stateMutability": "nonpayable",
      "type": "function"
    },
    {
      "inputs": [
        {
          "internalType": "address",
          "name": "newOwner",
          "type": "address"
        }
      ],
      "name": "transferOwnership",
      "outputs": [],
      "stateMutability": "nonpayable",
      "type": "function"
    }
  ],
  "bytecode": "0x6080346200037e576001600160401b0390604090808201838111828210176200036a578252601981526020907f4167656e745661756c74204167656e74204964656e746974790000000000000082820152825193838501858110828211176200036a578452600492838652634156414960e01b8187015282519082821162000276575f54916001948584811c941680156200035f575b838510146200034c578190601f94858111620002f9575b50839085831160011462000295575f9262000289575b50505f19600383901b1c191690851b175f555b8651928311620002765783548481811c911680156200026b575b82821014620002585782811162000210575b5080918311600114620001aa575081929394955f926200019e575b50505f19600383901b1c191690821b1790555b331562000189575060068054336001600160a01b0319821681179092559151916001600160a01b03167f8be0079c531659141344cd1fd0a4f28419497f9722a3daafe3b4186f6b6457e05f80a36125c19081620003838239f35b5f6024925191631e4fbdf760e01b8352820152fd5b015190505f806200011c565b90601f19831696845f52825f20925f905b898210620001f8575050838596979810620001df575b505050811b0190556200012f565b01515f1960f88460031b161c191690555f8080620001d1565b808785968294968601518155019501930190620001bb565b845f52815f208380860160051c8201928487106200024e575b0160051c019085905b8281106200024257505062000101565b5f815501859062000232565b9250819262000229565b602286634e487b7160e01b5f525260245ffd5b90607f1690620000ef565b604185634e487b7160e01b5f525260245ffd5b015190505f80620000c2565b90879350601f198316915f8052855f20925f5b87828210620002e25750508411620002c9575b505050811b015f55620000d5565b01515f1960f88460031b161c191690555f8080620002bb565b8385015186558b97909501949384019301620002a8565b9091505f8052835f208580850160051c82019286861062000342575b918991869594930160051c01915b82811062000333575050620000ac565b5f815585945089910162000323565b9250819262000315565b602287634e487b7160e01b5f525260245ffd5b93607f169362000095565b634e487b7160e01b5f52604160045260245ffd5b5f80fdfe6080806040526004361015610012575f80fd5b5f3560e01c90816301ffc9a71461159b5750806306fdde03146114f4578063081812fc146114b8578063095ea7b3146113d75780630af28bd31461128c57806311ba6b4a146111ec57806323b872dd146111d55780632ccbaac91461119d57806342842e0e146111705780636352211e1461114057806369f1324d1461091657806370a08231146108c0578063715018a6146108655780638a5da45c146106aa5780638da5cb5b1461068257806395d89b41146105a4578063a22cb465146104dc578063b88d4fde1461046f578063c36fe3d6146103ad578063c505371214610390578063c87b56dd14610359578063e985e9c514610307578063f08f4f64146101af5763f2fde38b14610124575f80fd5b346101ab5760203660031901126101ab5761013d61164c565b610145612026565b6001600160a01b0390811690811561019357600654826001600160601b0360a01b821617600655167f8be0079c531659141344cd1fd0a4f28419497f9722a3daafe3b4186f6b6457e05f80a3005b604051631e4fbdf760e01b81525f6004820152602490fd5b5f80fd5b346101ab576020806003193601126101ab576102bd6040516101d0816116da565b5f60e0606092838152838682015283604082015282848201528260808201528260a08201528260c082015201526004355f526008835260405f209260405191610218836116da565b610221856117f1565b835261022f600186016117f1565b94828401958652610242600282016117f1565b936040810194855260018060a01b039485600384015416958483019687526102e26004850154926080850193845260058601549460a0810195865260ff600760068901549860c08401998a520154169760e0820198151589526102d26040519d8e9d8e948d865251610100809e870152610120860190611627565b9051601f199460408682850301910152611627565b9251918c840301908c0152611627565b96511660808801525160a08701525160c08601525160e0850152511515908301520390f35b346101ab5760403660031901126101ab5761032061164c565b610328611662565b9060018060a01b038091165f52600560205260405f2091165f52602052602060ff60405f2054166040519015158152f35b346101ab5760203660031901126101ab5761038c610378600435611b18565b604051918291602083526020830190611627565b0390f35b346101ab575f3660031901126101ab576020600754604051908152f35b346101ab5760203660031901126101ab576004355f52600860205261043360405f206103d8816117f1565b906103e5600182016117f1565b6103f1600283016117f1565b9160018060a01b0360038201541692600482015461044f60058401549261044160ff6007600688015497015416966040519a8b9a610100808d528c0190611627565b908a820360208c0152611627565b9088820360408a0152611627565b946060870152608086015260a085015260c0840152151560e08301520390f35b346101ab5760803660031901126101ab5761048861164c565b610490611662565b90604435606435926001600160401b0384116101ab57366023850112156101ab576104c86104da943690602481600401359101611783565b926104d4838383611962565b33612052565b005b346101ab5760403660031901126101ab576104f561164c565b60243590811515908183036101ab57331561058c576001600160a01b03169182156105735761054590335f52600560205260405f20845f5260205260405f209060ff801983541691151516179055565b6040519081527f17307eab39ab6107e8899845ad3d59bd9653f200f220920489ca2b5937696c3160203392a3005b604051630b61174360e31b815260048101849052602490fd5b60405163a9fbf51f60e01b81525f6004820152602490fd5b346101ab575f3660031901126101ab576040515f600182600154926105c8846117b9565b92838352602094856001821691825f14610662575050600114610607575b506105f392500383611747565b61038c604051928284938452830190611627565b84915060015f527fb10e2d527612073b26eecdfd717e6a320cf44b4afac2b0732d9fcbe2b7fa0cf6905f915b85831061064a5750506105f39350820101856105e6565b80548389018501528794508693909201918101610633565b60ff1916858201526105f395151560051b85010192508791506105e69050565b346101ab575f3660031901126101ab576006546040516001600160a01b039091168152602090f35b346101ab5760403660031901126101ab57600435602435815f526020916002835260018060a01b03926106e48460405f2054161515611893565b815f526008815260405f209360ff6007860154161561082d5780600386015416331490811561081f575b50156107db57825f52600a815260ff60405f20541661079757825f52600a815260405f20600160ff1982541617905560048401908154946001860180961161078357857fb7db39afb13e1259e8f8ec334b8b249f2aaea0b9e827c625aed98f18a21ce2c29355600642910155604051428152a4005b634e487b7160e01b5f52601160045260245ffd5b6064906040519062461bcd60e51b82526004820152601960248201527f4465636973696f6e20616c7265616479207265636f72646564000000000000006044820152fd5b6064906040519062461bcd60e51b82526004820152601d60248201527f4e6f7420617574686f72697a656420666f722074686973206167656e740000006044820152fd5b90506006541633148561070e565b60405162461bcd60e51b815260048101839052601060248201526f4167656e74206e6f742061637469766560801b6044820152606490fd5b346101ab575f3660031901126101ab5761087d612026565b600680546001600160a01b031981169091555f906001600160a01b03167f8be0079c531659141344cd1fd0a4f28419497f9722a3daafe3b4186f6b6457e08280a3005b346101ab5760203660031901126101ab576001600160a01b036108e161164c565b1680156108fe575f526003602052602060405f2054604051908152f35b6040516322718ad960e21b81525f6004820152602490fd5b346101ab5760803660031901126101ab5761092f61164c565b6024356001600160401b0381116101ab5761094e903690600401611678565b90916044356001600160401b0381116101ab5761096f903690600401611678565b9390926064356001600160401b0381116101ab57610991903690600401611678565b92909161099c612026565b6001600160a01b03851615611106576001600160a01b0385165f908152600960205260409020546110c157801561108c57606481116110575783156110215760016007540195866007556040516109f2816116f6565b5f808252888152600260205260409020546001600160a01b031680151590899082610fee575b6001600160a01b038a165f818152600360209081526040808320805460010190558583526002909152812080546001600160a01b031916831790559091907fddf252ad1be2c89b69c2b068fc378daa952ba7f163c4a11628f55a4df523b3ef9080a4610fd657863b610e91575b50610aab9060405198610a978a6116da565b610aa2368587611783565b8a523691611783565b6020880152610abb368585611783565b604088015260018060a01b03851660608801525f60808801524260a08801525f60c0880152600160e0880152855f52600860205260405f209287518051906001600160401b038211610da457610b1b82610b1588546117b9565b88611913565b602090601f8311600114610e2d57610b4a92915f9183610db8575b50508160011b915f199060031b1c19161790565b84555b60208801518051906001600160401b038211610da457610b7d82610b7460018901546117b9565b60018901611913565b602090601f8311600114610dc357610bab92915f9183610db85750508160011b915f199060031b1c19161790565b60018501555b6040880151938451986001600160401b038a11610da457898996610be760209c610bde60028701546117b9565b60028701611913565b8b90601f8311600114610d035760e07fa5a9bc4ac6f13b606301e7d4d7c1391c2e58049a166445b3709189e91220db32999a94610c4585610ca296610cdb9a99966007965f92610cf85750508160011b915f199060031b1c19161790565b60028501555b6003840160018060a01b036060830151166001600160601b0360a01b8254161790556080810151600485015560a0810151600585015560c081015160068501550151151591019060ff801983541691151516179055565b60018060a01b0388165f5260098a528660405f2055610cce604051958695606087526060870191611af8565b918483038b860152611af8565b4260408301526001600160a01b03909516940390a3604051908152f35b015190505f80610b36565b6002859493929a95015f528c5f20905f5b601f1984168110610d8a5750610ca2936001846007947fa5a9bc4ac6f13b606301e7d4d7c1391c2e58049a166445b3709189e91220db329d9e60e095610cdb9c9b9a98601f19811610610d72575b505050811b016002850155610c4b565b01515f1960f88460031b161c191690555f8080610d62565b818c015183559a8e019a8d9a506001909201918e01610d14565b634e487b7160e01b5f52604160045260245ffd5b015190508b80610b36565b90601f19831691600188015f5260205f20925f5b818110610e155750908460019594939210610dfd575b505050811b016001850155610bb1565b01515f1960f88460031b161c191690558a8080610ded565b92936020600181928786015181550195019301610dd7565b90601f19831691875f5260205f20925f5b818110610e795750908460019594939210610e61575b505050811b018455610b4d565b01515f1960f88460031b161c191690558a8080610e54565b92936020600181928786015181550195019301610e3e565b6020610ecf9160409a99989a5180938192630a85bd0160e11b83523360048401525f60248401528b6044840152608060648401526084830190611627565b03815f6001600160a01b038e165af15f9181610f91575b50610f4d57883d15610f45573d90610efd82611768565b91610f0b6040519384611747565b82523d5f602084013e5b81519182610f3e57604051633250574960e11b81526001600160a01b0383166004820152602490fd5b6020915001fd5b606090610f15565b969795966001600160e01b03191663757a42ff60e11b01610f7057610aab610a85565b604051633250574960e11b81526001600160a01b0387166004820152602490fd5b9091506020813d602011610fce575b81610fad60209383611747565b810103126101ab57516001600160e01b0319811681036101ab57908a610ee6565b3d9150610fa0565b6040516339e3563760e11b81525f6004820152602490fd5b5f82815260046020526040902080546001600160a01b0319169055805f52600360205260405f205f198154019055610a18565b60405162461bcd60e51b815260206004820152600e60248201526d135bd9195b081c995c5d5a5c995960921b6044820152606490fd5b60405162461bcd60e51b815260206004820152600d60248201526c4e616d6520746f6f206c6f6e6760981b6044820152606490fd5b60405162461bcd60e51b815260206004820152600d60248201526c13985b59481c995c5d5a5c9959609a1b6044820152606490fd5b60405162461bcd60e51b815260206004820152601f60248201527f436f6e74726f6c6c657220616c72656164792068617320616e206167656e74006044820152606490fd5b60405162461bcd60e51b815260206004820152601260248201527124b73b30b634b21031b7b73a3937b63632b960711b6044820152606490fd5b346101ab5760203660031901126101ab57602061115e600435611fec565b6040516001600160a01b039091168152f35b346101ab576104da611181366116a5565b906040519261118f846116f6565b5f84526104d4838383611962565b346101ab5760203660031901126101ab576001600160a01b036111be61164c565b165f526009602052602060405f2054604051908152f35b346101ab576104da6111e6366116a5565b91611962565b346101ab5760203660031901126101ab57600435805f526002602052600760018060a01b036112228160405f2054161515611893565b825f52600860205261124960405f209180600384015416331490811561127e575b506118d6565b0160ff1981541690557f0b69d5ec2a1fb8f6ccb495208da819a90a3ba49eabd4e1ff66ba3ad7425c0f3e6020604051428152a2005b905060065416331485611243565b346101ab5760403660031901126101ab576004356001600160401b036024358181116101ab576112c0903690600401611678565b90835f526020936002855261130660018060a01b036112e68160405f2054161515611893565b825f526008875280600360405f2001541633149081156113c957506118d6565b5f52600b845260405f20928211610da45761132b8261132585546117b9565b85611913565b5f93601f8311600114611369575061135a929382915f9261135e5750508160011b915f199060031b1c19161790565b9055005b013590508480610b36565b90601f19831694845f52825f20925f905b8782106113b1575050836001959610611398575b505050811b019055005b01355f19600384901b60f8161c1916905583808061138e565b8060018496829495870135815501950192019061137a565b905060065416331487611243565b346101ab5760403660031901126101ab576113f061164c565b6024356113fc81611fec565b331515806114a5575b8061147c575b611464576001600160a01b039283169282918491167f8c5be1e5ebec7d5bd14f71427d1e84f3dd0314c0f7b2291e5b200ac8c7c3b9255f80a45f90815260046020526040902080546001600160a01b0319169091179055005b60405163a9fbf51f60e01b8152336004820152602490fd5b5060018060a01b0381165f52600560205260405f20335f5260205260ff60405f2054161561140b565b506001600160a01b038116331415611405565b346101ab5760203660031901126101ab576004356114d581611fec565b505f526004602052602060018060a01b0360405f205416604051908152f35b346101ab575f3660031901126101ab576040515f80549082611515836117b9565b91828252602093600190856001821691825f1461066257505060011461154257506105f392500383611747565b5f808052859250907f290decd9548b62a8d60345a988386fc84ba6bc95484008f6362f93160ef3e5635b8583106115835750506105f39350820101856105e6565b8054838901850152879450869390920191810161156c565b346101ab5760203660031901126101ab576004359063ffffffff60e01b82168092036101ab576020916380ac58cd60e01b81149081156115f5575b81156115e4575b5015158152f35b6301ffc9a760e01b149050836115dd565b635b5e139f60e01b811491506115d6565b5f5b8381106116175750505f910152565b8181015183820152602001611608565b9060209161164081518092818552858086019101611606565b601f01601f1916010190565b600435906001600160a01b03821682036101ab57565b602435906001600160a01b03821682036101ab57565b9181601f840112156101ab578235916001600160401b0383116101ab57602083818601950101116101ab57565b60609060031901126101ab576001600160a01b039060043582811681036101ab579160243590811681036101ab579060443590565b61010081019081106001600160401b03821117610da457604052565b602081019081106001600160401b03821117610da457604052565b606081019081106001600160401b03821117610da457604052565b604081019081106001600160401b03821117610da457604052565b90601f801991011681019081106001600160401b03821117610da457604052565b6001600160401b038111610da457601f01601f191660200190565b92919261178f82611768565b9161179d6040519384611747565b8294818452818301116101ab578281602093845f960137010152565b90600182811c921680156117e7575b60208310146117d357565b634e487b7160e01b5f52602260045260245ffd5b91607f16916117c8565b9060405191825f8254611803816117b9565b908184526020946001916001811690815f146118715750600114611833575b50505061183192500383611747565b565b5f90815285812095935091905b81831061185957505061183193508201015f8080611822565b85548884018501529485019487945091830191611840565b9250505061183194925060ff191682840152151560051b8201015f8080611822565b1561189a57565b60405162461bcd60e51b81526020600482015260146024820152731059d95b9d08191bd95cc81b9bdd08195e1a5cdd60621b6044820152606490fd5b156118dd57565b60405162461bcd60e51b815260206004820152600e60248201526d139bdd08185d5d1a1bdc9a5e995960921b6044820152606490fd5b601f821161192057505050565b5f5260205f20906020601f840160051c83019310611958575b601f0160051c01905b81811061194d575050565b5f8155600101611942565b9091508190611939565b6001600160a01b039182169290918315611ae057815f52602092600284528260409583875f2054169533151580611a4e575b5060029087611a1d575b825f5260038152885f2060018154019055835f5252865f20816001600160601b0360a01b825416179055857fddf252ad1be2c89b69c2b068fc378daa952ba7f163c4a11628f55a4df523b3ef5f80a416928383036119fc5750505050565b6064945051926364283d7b60e01b8452600484015260248301526044820152fd5b5f84815260046020526040812080546001600160a01b03191690558881526003825289902080545f1901905561199e565b9192509080611a9f575b15611a66579084915f611994565b868587611a83576024915190637e27328960e01b82526004820152fd5b604491519063177e802f60e01b82523360048301526024820152fd5b503386148015611ac4575b80611a585750845f52600481523384885f20541614611a58565b50855f5260058152865f20335f52815260ff875f205416611aaa565b604051633250574960e11b81525f6004820152602490fd5b908060209392818452848401375f828201840152601f01601f1916010190565b5f818152600260208181526040928390205490936001600160a01b0391611b429083161515611893565b805f52600b8552611b55845f20546117b9565b611fd8575f5260088452825f2090835191611b6f836116da565b611b78816117f1565b8352600193611b89600183016117f1565b94878501958652611b9c600284016117f1565b9081888701526003856003860154169360608801948552600496611bf188880154998a6080820152600589015460a0820152600689015460c082015260ff6007819a015416151560e0820152519a51996121f3565b955116918a5197611c0189611711565b602a89528c8901978c368a37895115611fc55760308953895160011015611fc557607860218b01535f5b60148110611eac5750505050505050610122611e9998958895611e6095603d9995611e5b95611ea99c519788957f7b2274797065223a2268747470733a2f2f656970732e657468657265756d2e6f8d8801527f72672f454950532f6569702d3830303423726567697374726174696f6e2d76318c8801528c611d09606a611cd88a61088b60f21b9687606083015267113730b6b2911d1160c11b6062830152858151948593019101611606565b89019184606a8401526e113232b9b1b934b83a34b7b7111d1160891b606c8401528351938491607b85019101611606565b0190607b8201526d2261747472696275746573223a5b60901b607d8201527f7b2274726169745f74797065223a226d6f64656c222c2276616c7565223a2200608b820152611d618c835193849160aa85019101611606565b0162089f4b60ea1b60aa8201527f7b2274726169745f74797065223a226465636973696f6e73222c2276616c756560ad82015261111d60f11b60cd820152611db2825180938d60cf85019101611606565b01607d60f81b60cf82015261174b60f21b60d08201527f227365727669636573223a5b7b226e616d65223a22776562222c22656e64706f60d28201527f696e74223a2268747470733a2f2f6167656e747661756c742e6169227d5d2c0060f28201526e1130b3b2b73a2bb0b63632ba111d1160891b610111820152611e406101209351809385840190611606565b019061227d60f01b9082015203610102810184520182611747565b6122a8565b905194827f646174613a6170706c69636174696f6e2f6a736f6e3b6261736536342c000000879485015282519283918686019101611606565b810103601d810184520182611747565b90565b6013818103908111611fb25780851b906001600160fd1b03811603611fb257828111611fb25787811b15611f9f5786901c60f081168382160390838211611f6657611eff9060f41b600f60f81b16612549565b82891b91906001600160ff1b0384168403611f8c5787830190818411611f7957611f328f9192611f4594935f1a926121ce565b5360f81b6001600160f81b031916612549565b858201809211611f6657611f5f8993928e925f1a926121ce565b5301611c2b565b601185634e487b7160e01b5f525260245ffd5b601187634e487b7160e01b5f525260245ffd5b601186634e487b7160e01b5f525260245ffd5b601284634e487b7160e01b5f525260245ffd5b601184634e487b7160e01b5f525260245ffd5b603282634e487b7160e01b5f525260245ffd5b600b9250611ea99491505f52525f206117f1565b5f818152600260205260409020546001600160a01b031690811561200e575090565b60249060405190637e27328960e01b82526004820152fd5b6006546001600160a01b0316330361203a57565b60405163118cdaa760e01b8152336004820152602490fd5b9293909193843b612065575b5050505050565b604051630a85bd0160e11b8082526001600160a01b0395861660048301529385166024820152604481019190915260806064820152602095949093169392908590829081906120b8906084830190611627565b03815f885af15f918161215c575b50612125575050503d5f1461211d573d916120e083611768565b926120ee6040519485611747565b83523d5f8285013e5b8251928361211857604051633250574960e11b815260048101849052602490fd5b019050fd5b6060916120f7565b9193506001600160e01b03199091160361214457505f8080808061205e565b60249060405190633250574960e11b82526004820152fd5b9091508581813d8311612195575b6121748183611747565b810103126101ab57516001600160e01b0319811681036101ab57905f6120c6565b503d61216a565b906121a682611768565b6121b36040519182611747565b82815280926121c4601f1991611768565b0190602036910137565b9081518110156121df570160200190565b634e487b7160e01b5f52603260045260245ffd5b801561226d5780815f925b61225657508061220d8361219c565b92905b61221957505090565b8015610783575f190190600a90603082820681018091116107835760f81b6001600160f81b0319165f1a61224d84866121ce565b53049081612210565b915f198114610783576001600a91019204806121fe565b5060405161227a8161172c565b60018152600360fc1b602082015290565b604051906122988261172c565b60018252603d60f81b6020830152565b6040516122b481611711565b604081527f4142434445464748494a4b4c4d4e4f505152535455565758595a61626364656660208201527f6768696a6b6c6d6e6f707172737475767778797a303132333435363738392b2f604082015281518015612534576002810180821161078357600390046001600160fe1b0381168103610783576123379060021b61219c565b925f5b828110612348575050505090565b61235281836121ce565b51600180830180841190816107835786811091821561252c57506123775f91876121ce565b5160f81c5b600286019283871180610783578985101561252457505f9261239e858a6121ce565b5160f81c955b6001600160f81b03196123bb60fa8a901c8e6121ce565b5160038b049991166001600160fe1b038a168a03610783576123e58f915f1a918b60021b906121ce565b536001600160f81b0319906124099060f41c603016600487901c600f16178e6121ce565b5116908860021b0190818960021b11610783575f1a90612429908e6121ce565b536107835715612501576001600160f81b0319906124569060021b603c16600686901c600316178a6121ce565b51165b600285811b018560021b11610783575f1a612479600286811b018b6121ce565b53610783578511156124de576001600160f81b03199061249c90603f16876121ce565b51165b60038260021b01809260021b11610783576124bd905f1a91876121ce565b53600381018091111561233a57634e487b7160e01b5f52601160045260245ffd5b506124e761228b565b8051156121df57602001516001600160f81b03191661249f565b5061250a61228b565b8051156121df57602001516001600160f81b031916612459565b925f956123a4565b90505f61237c565b505050604051612543816116f6565b5f815290565b60f81c600a8110156125705760300160ff81116107835760f81b6001600160f81b03191690565b60570160ff81116107835760f81b6001600160f81b0319169056fea2646970667358221220d0e5a8546324700ba8d3be6e90f222adae09d114e1247a7507252f5ff2429fcd64736f6c63430008180033",
  "linkReferences": {},
  "deployedLinkReferences": {}
}