{
  "_format": "hh-sol-artifact-1",
  "contractName": "StrategyManager",
  "sourceName": "contracts/StrategyManager.sol",
  "abi": [
    {
      "inputs": [
        {
          "internalType": "address",
          "name": "_vault",
          "type": "address"
        },
        {
          "internalType": "address",
          "name": "_usdc",
          "type": "address"
        },
        {
          "internalType": "address",
          "name": "_weth",
          "type": "address"
        }
      ],
      "stateMutability": "nonpayable",
      "type": "constructor"
    },
    {
      "inputs": [
        {
          "internalType": "address",
          "name": "owner",
          "type": "address"
        }
      ],
      "name": "OwnableInvalidOwner",
      "type": "error"
    },
    {
      "inputs": [
        {
          "internalType": "address",
          "name": "account",
          "type": "address"
        }
      ],
      "name": "OwnableUnauthorizedAccount",
      "type": "error"
    },
    {
      "inputs": [],
      "name": "ReentrancyGuardReentrantCall",
      "type": "error"
    },
    {
      "anonymous": false,
      "inputs": [
        {
          "indexed": true,
          "internalType": "address",
          "name": "previousOwner",
          "type": "address"
        },
        {
          "indexed": true,
          "internalType": "address",
          "name": "newOwner",
          "type": "address"
        }
      ],
      "name": "OwnershipTransferred",
      "type": "event"
    },
    {
      "anonymous": false,
      "inputs": [
        {
          "indexed": true,
          "internalType": "address",
          "name": "user",
          "type": "address"
        },
        {
          "indexed": false,
          "internalType": "uint256",
          "name": "ethAmount",
          "type": "uint256"
        },
        {
          "indexed": false,
          "internalType": "uint256",
          "name": "usdcAmount",
          "type": "uint256"
        },
        {
          "indexed": false,
          "internalType": "uint256",
          "name": "timestamp",
          "type": "uint256"
        }
      ],
      "name": "RebalanceExecuted",
      "type": "event"
    },
    {
      "anonymous": false,
      "inputs": [
        {
          "indexed": true,
          "internalType": "address",
          "name": "user",
          "type": "address"
        },
        {
          "indexed": false,
          "internalType": "uint256",
          "name": "ethAlloc",
          "type": "uint256"
        },
        {
          "indexed": false,
          "internalType": "uint256",
          "name": "usdcAlloc",
          "type": "uint256"
        },
        {
          "indexed": false,
          "internalType": "uint256",
          "name": "conviction",
          "type": "uint256"
        },
        {
          "indexed": false,
          "internalType": "uint256",
          "name": "timestamp",
          "type": "uint256"
        }
      ],
      "name": "RecommendationGenerated",
      "type": "event"
    },
    {
      "anonymous": false,
      "inputs": [
        {
          "indexed": true,
          "internalType": "address",
          "name": "user",
          "type": "address"
        },
        {
          "indexed": false,
          "internalType": "string",
          "name": "reasoning",
          "type": "string"
        },
        {
          "indexed": false,
          "internalType": "uint256",
          "name": "timestamp",
          "type": "uint256"
        }
      ],
      "name": "RecommendationStored",
      "type": "event"
    },
    {
      "inputs": [
        {
          "internalType": "address",
          "name": "",
          "type": "address"
        }
      ],
      "name": "currentRecommendations",
      "outputs": [
        {
          "internalType": "uint256",
          "name": "ethAllocation",
          "type": "uint256"
        },
        {
          "internalType": "uint256",
          "name": "usdcAllocation",
          "type": "uint256"
        },
        {
          "internalType": "uint256",
          "name": "conviction",
          "type": "uint256"
        },
        {
          "internalType": "uint256",
          "name": "timestamp",
          "type": "uint256"
        },
        {
          "internalType": "string",
          "name": "reasoning",
          "type": "string"
        },
        {
          "internalType": "bool",
          "name": "executed",
          "type": "bool"
        }
      ],
      "stateMutability": "view",
      "type": "function"
    },
    {
      "inputs": [
        {
          "internalType": "address",
          "name": "user",
          "type": "address"
        }
      ],
      "name": "executeRebalance",
      "outputs": [],
      "stateMutability": "nonpayable",
      "type": "function"
    },
    {
      "inputs": [
        {
          "internalType": "address",
          "name": "user",
          "type": "address"
        }
      ],
      "name": "getCurrentAllocation",
      "outputs": [
        {
          "internalType": "uint256",
          "name": "ethAlloc",
          "type": "uint256"
        },
        {
          "internalType": "uint256",
          "name": "usdcAlloc",
          "type": "uint256"
        }
      ],
      "stateMutability": "view",
      "type": "function"
    },
    {
      "inputs": [
        {
          "internalType": "address",
          "name": "user",
          "type": "address"
        }
      ],
      "name": "getRecommendation",
      "outputs": [
        {
          "components": [
            {
              "internalType": "uint256",
              "name": "ethAllocation",
              "type": "uint256"
            },
            {
              "internalType": "uint256",
              "name": "usdcAllocation",
              "type": "uint256"
            },
            {
              "internalType": "uint256",
              "name": "conviction",
              "type": "uint256"
            },
            {
              "internalType": "uint256",
              "name": "timestamp",
              "type": "uint256"
            },
            {
              "internalType": "string",
              "name": "reasoning",
              "type": "string"
            },
            {
              "internalType": "bool",
              "name": "executed",
              "type": "bool"
            }
          ],
          "internalType": "struct StrategyManager.Recommendation",
          "name": "",
          "type": "tuple"
        }
      ],
      "stateMutability": "view",
      "type": "function"
    },
    {
      "inputs": [
        {
          "internalType": "address",
          "name": "user",
          "type": "address"
        }
      ],
      "name": "getRecommendationCount",
      "outputs": [
        {
          "internalType": "uint256",
          "name": "",
          "type": "uint256"
        }
      ],
      "stateMutability": "view",
      "type": "function"
    },
    {
      "inputs": [
        {
          "internalType": "address",
          "name": "user",
          "type": "address"
        }
      ],
      "name": "getRecommendationHistory",
      "outputs": [
        {
          "components": [
            {
              "internalType": "uint256",
              "name": "ethAllocation",
              "type": "uint256"
            },
            {
              "internalType": "uint256",
              "name": "usdcAllocation",
              "type": "uint256"
            },
            {
              "internalType": "uint256",
              "name": "conviction",
              "type": "uint256"
            },
            {
              "internalType": "uint256",
              "name": "timestamp",
              "type": "uint256"
            },
            {
              "internalType": "string",
              "name": "reasoning",
              "type": "string"
            },
            {
              "internalType": "bool",
              "name": "executed",
              "type": "bool"
            }
          ],
          "internalType": "struct StrategyManager.Recommendation[]",
          "name": "",
          "type": "tuple[]"
        }
      ],
      "stateMutability": "view",
      "type": "function"
    },
    {
      "inputs": [],
      "name": "owner",
      "outputs": [
        {
          "internalType": "address",
          "name": "",
          "type": "address"
        }
      ],
      "stateMutability": "view",
      "type": "function"
    },
    {
      "inputs": [
        {
          "internalType": "address",
          "name": "",
          "type": "address"
        },
        {
          "internalType": "uint256",
          "name": "",
          "type": "uint256"
        }
      ],
      "name": "recommendationHistory",
      "outputs": [
        {
          "internalType": "uint256",
          "name": "ethAllocation",
          "type": "uint256"
        },
        {
          "internalType": "uint256",
          "name": "usdcAllocation",
          "type": "uint256"
        },
        {
          "internalType": "uint256",
          "name": "conviction",
          "type": "uint256"
        },
        {
          "internalType": "uint256",
          "name": "timestamp",
          "type": "uint256"
        },
        {
          "internalType": "string",
          "name": "reasoning",
          "type": "string"
        },
        {
          "internalType": "bool",
          "name": "executed",
          "type": "bool"
        }
      ],
      "stateMutability": "view",
      "type": "function"
    },
    {
      "inputs": [],
      "name": "renounceOwnership",
      "outputs": [],
      "stateMutability": "nonpayable",
      "type": "function"
    },
    {
      "inputs": [
        {
          "internalType": "address",
          "name": "user",
          "type": "address"
        },
        {
          "internalType": "uint256",
          "name": "ethAlloc",
          "type": "uint256"
        },
        {
          "internalType": "uint256",
          "name": "usdcAlloc",
          "type": "uint256"
        },
        {
          "internalType": "uint256",
          "name": "conviction",
          "type": "uint256"
        },
        {
          "internalType": "string",
          "name": "reasoning",
          "type": "string"
        }
      ],
      "name": "storeRecommendation",
      "outputs": [],
      "stateMutability": "nonpayable",
      "type": "function"
    },
    {
      "inputs": [
        {
          "internalType": "address",
          "name": "newOwner",
          "type": "address"
        }
      ],
      "name": "transferOwnership",
      "outputs": [],
      "stateMutability": "nonpayable",
      "type": "function"
    },
    {
      "inputs": [],
      "name": "usdc",
      "outputs": [
        {
          "internalType": "contract IERC20",
          "name": "",
          "type": "address"
        }
      ],
      "stateMutability": "view",
      "type": "function"
    },
    {
      "inputs": [],
      "name": "vault",
      "outputs": [
        {
          "internalType": "address",
          "name": "",
          "type": "address"
        }
      ],
      "stateMutability": "view",
      "type": "function"
    },
    {
      "inputs": [],
      "name": "weth",
      "outputs": [
        {
          "internalType": "contract IERC20",
          "name": "",
          "type": "address"
        }
      ],
      "stateMutability": "view",
      "type": "function"
    }
  ],
  "bytecode": "0x6080346101f557601f61111f38819003918201601f191683019291906001600160401b038411838510176101f95781606092849260409687528339810103126101f55761004b8161020d565b6100628361005b6020850161020d565b930161020d565b33156101de575f549260018060a01b03908160018060a01b03199433868816175f55875196823391167f8be0079c531659141344cd1fd0a4f28419497f9722a3daafe3b4186f6b6457e05f80a360017f9b779b17422d0df92223018b32b4d1fa46e071723d6817e2486d003becc55f00551694851561019c57508116918215610158571692831561011457826003541617600355816001541617600155600254161760025551610efd90816102228239f35b845162461bcd60e51b815260206004820152601b60248201527f5745544820616464726573732063616e6e6f74206265207a65726f00000000006044820152606490fd5b855162461bcd60e51b815260206004820152601b60248201527f5553444320616464726573732063616e6e6f74206265207a65726f00000000006044820152606490fd5b62461bcd60e51b815260206004820152601c60248201527f5661756c7420616464726573732063616e6e6f74206265207a65726f000000006044820152606490fd5b8351631e4fbdf760e01b81525f6004820152602490fd5b5f80fd5b634e487b7160e01b5f52604160045260245ffd5b51906001600160a01b03821682036101f55756fe604060808152600480361015610013575f80fd5b5f3560e01c908163016cd3e3146109ff5781633b0fe5191461063a5781633e413bee146106125781633fc8cef3146105ea57816343410002146105825781634b64b081146104fe578163715018a6146104a757816388b0e1fc146104545781638da5cb5b1461042d5781639a7683c4146103c7578163e7a014d914610277578163f2fde38b146101ea578163f9629ee7146100e2575063fbfa77cf146100b7575f80fd5b346100de575f3660031901126100de5760035490516001600160a01b039091168152602090f35b5f80fd5b9050346100de57602090816003193601126100de576001600160a01b03610107610a3f565b16610113811515610c6e565b5f52808252825f209081549067ffffffffffffffff82116101d7575091835192610142828260051b0185610aea565b80845281840180935f52825f205f915b8383106101b457505050508351928184019082855251809152848401948160051b85010192915f955b8287106101885785850386f35b9091929382806101a4600193603f198a82030186528851610c24565b960192019601959291909261017b565b6006856001926101c6859a989a610e08565b815201920192019190959395610152565b604190634e487b7160e01b5f525260245ffd5b9050346100de5760203660031901126100de57610205610a3f565b9061020e610e9c565b6001600160a01b039182169283156102615750505f54826bffffffffffffffffffffffff60a01b8216175f55167f8be0079c531659141344cd1fd0a4f28419497f9722a3daafe3b4186f6b6457e05f80a3005b905f6024925191631e4fbdf760e01b8352820152fd5b9050346100de5760203660031901126100de57610292610a3f565b61029a610e5a565b6001600160a01b0316916102af831515610c6e565b825f526005602052805f209160038301541561038557600583019081549060ff8216610342575060ff1916600190811790915582549201548151928352602083015242908201527f7e2f47fc1890fbb3582a024136b81b3806d1bea781c72b8201f6870d3570338390606090a260017f9b779b17422d0df92223018b32b4d1fa46e071723d6817e2486d003becc55f0055005b606490602085519162461bcd60e51b8352820152601f60248201527f5265636f6d6d656e646174696f6e20616c7265616479206578656375746564006044820152fd5b6020606492519162461bcd60e51b8352820152601760248201527f4e6f207265636f6d6d656e646174696f6e20666f756e640000000000000000006044820152fd5b82346100de5760203660031901126100de576001600160a01b036103e9610a3f565b165f526005602052610429815f2091825492600181015494600282015460ff600561041a6003860154948601610b0c565b94015416935196879687610bec565b0390f35b82346100de575f3660031901126100de575f5490516001600160a01b039091168152602090f35b82346100de5760203660031901126100de576001600160a01b03610476610a3f565b16610482811515610c6e565b5f526005602052610494815f20610e08565b6020815191015182519182526020820152f35b346100de575f3660031901126100de576104bf610e9c565b5f80546001600160a01b0319811682556001600160a01b03167f8be0079c531659141344cd1fd0a4f28419497f9722a3daafe3b4186f6b6457e08280a3005b82346100de5760203660031901126100de576104299061051c610a3f565b5f60a0835161052a81610aba565b828152602081018390528481018390526060808201849052608082015201526001600160a01b031661055d811515610c6e565b5f52600560205261056f815f20610e08565b9051918291602083526020830190610c24565b82346100de57806003193601126100de5761059b610a3f565b6024359060018060a01b03165f5282602052815f2080548210156100de57610429916105c691610a55565b5091825492600181015494600282015460ff600561041a6003860154948601610b0c565b82346100de575f3660031901126100de5760025490516001600160a01b039091168152602090f35b82346100de575f3660031901126100de5760015490516001600160a01b039091168152602090f35b9050346100de5760a03660031901126100de57610655610a3f565b60248035926044938435906064918235906084359367ffffffffffffffff978886116100de57366023870112156100de57858701359889116100de5787860195888a36920101116100de576106a8610e5a565b5f546001600160a01b0391908216331480156109f4575b156109a057169889156109615782850180861161094f578203610910578184116108d157881561089d576101f4891161086957505088516106ff81610aba565b8381526020958287830152838b830152426060830152601f19601f8a0116978b5161072c898b0182610aea565b8a81528a888a8301375f898c8301015260808401525f60a08401528a5f528188528b5f2080549068010000000000000000821015610857579061077491600182018155610a55565b929092610847575050606097958a7fc25fecaa12d1d899cbe51441c99416b4e192d101a99295fd0b0ca4099473d5e460808a987f32aea611ac7a7957c514dc8d0cd88537ec084bd9f2c3bbd9716202e2413d36dd9e9f9b988d988f98808f60055f9e6107e46107f0958f9e610cb1565b8f8b9052528d20610cb1565b8d519283528b8301528c8201524288820152a2875199888b998a52890152838801378501015242908301528101030190a260017f9b779b17422d0df92223018b32b4d1fa46e071723d6817e2486d003becc55f0055005b5f90634e487b7160e01b8252525ffd5b82604185634e487b7160e01b5f52525ffd5b71526561736f6e696e6720746f6f206c6f6e6760701b879160128a60208f519562461bcd60e51b8752860152840152820152fd5b711499585cdbdb9a5b99c81c995c5d5a5c995960721b879160128a60208f519562461bcd60e51b8752860152840152820152fd5b7f436f6e76696374696f6e206d757374206265203c3d2031303000000000000000879160198a60208f519562461bcd60e51b8752860152840152820152fd5b7f416c6c6f636174696f6e73206d7573742073756d20746f2031303000000000008791601b8a60208f519562461bcd60e51b8752860152840152820152fd5b88601189634e487b7160e01b5f52525ffd5b7f5573657220616464726573732063616e6e6f74206265207a65726f00000000008791601b8a60208f519562461bcd60e51b8752860152840152820152fd5b8b5162461bcd60e51b81526020818a0152602b818b01527f4f6e6c79206f776e6572206f7220757365722063616e2073746f726520726563818d01526a37b6b6b2b73230ba34b7b760a91b81850152608490fd5b5081811633146106bf565b82346100de5760203660031901126100de576020916001600160a01b03610a24610a3f565b16610a30811515610c6e565b5f528252805f20549051908152f35b600435906001600160a01b03821682036100de57565b8054821015610a6e575f52600660205f20910201905f90565b634e487b7160e01b5f52603260045260245ffd5b90600182811c92168015610ab0575b6020831014610a9c57565b634e487b7160e01b5f52602260045260245ffd5b91607f1691610a91565b60c0810190811067ffffffffffffffff821117610ad657604052565b634e487b7160e01b5f52604160045260245ffd5b90601f8019910116810190811067ffffffffffffffff821117610ad657604052565b9060405191825f8254610b1e81610a82565b908184526020946001916001811690815f14610b8c5750600114610b4e575b505050610b4c92500383610aea565b565b5f90815285812095935091905b818310610b74575050610b4c93508201015f8080610b3d565b85548884018501529485019487945091830191610b5b565b92505050610b4c94925060ff191682840152151560051b8201015f8080610b3d565b91908251928382525f5b848110610bd8575050825f602080949584010152601f8019910116010190565b602081830181015184830182015201610bb8565b949192610c1c9360a09592989798875260208701526040860152606085015260c0608085015260c0840190610bae565b931515910152565b908151815260208201516020820152604082015160408201526060820151606082015260a080610c63608085015160c0608086015260c0850190610bae565b930151151591015290565b15610c7557565b60405162461bcd60e51b8152602060048201526014602482015273496e76616c69642075736572206164647265737360601b6044820152606490fd5b81518155600190602080840151838301556040840151600283015560608401516003830155600482019060808501519384519167ffffffffffffffff8311610ad657610cfd8454610a82565b601f8111610dc2575b5080601f8411600114610d57575091808092600596959460a0985f94610d4c575b50501b915f199060031b1c19161790555b01910151151560ff80198354169116179055565b015192505f80610d27565b91939495601f198416865f52835f20935f905b828210610dab5750509160a09795939185600598969410610d93575b505050811b019055610d38565b01515f1960f88460031b161c191690555f8080610d86565b808886978294978701518155019601940190610d6a565b845f52815f20601f850160051c810191838610610dfe575b601f0160051c019083905b828110610df3575050610d06565b5f8155018390610de5565b9091508190610dda565b90604051610e1581610aba565b60a060ff6005839580548552600181015460208601526002810154604086015260038101546060860152610e4b60048201610b0c565b60808601520154161515910152565b7f9b779b17422d0df92223018b32b4d1fa46e071723d6817e2486d003becc55f006002815414610e8a5760029055565b604051633ee5aeb560e01b8152600490fd5b5f546001600160a01b03163303610eaf57565b60405163118cdaa760e01b8152336004820152602490fdfea264697066735822122042df8ca7052def2479e3236475c5af48fdd5a16adc58f764fc695c06f1f7bf7f64736f6c63430008180033",
  "linkReferences": {},
  "deployedLinkReferences": {}
}