{
  "_format": "hh-sol-artifact-1",
  "contractName": "Vault",
  "sourceName": "contracts/Vault.sol",
  "abi": [
    {
      "inputs": [
        {
          "internalType": "address",
          "name": "_usdc",
          "type": "address"
        },
        {
          "internalType": "address",
          "name": "_weth",
          "type": "address"
        }
      ],
      "stateMutability": "nonpayable",
      "type": "constructor"
    },
    {
      "inputs": [
        {
          "internalType": "address",
          "name": "owner",
          "type": "address"
        }
      ],
      "name": "OwnableInvalidOwner",
      "type": "error"
    },
    {
      "inputs": [
        {
          "internalType": "address",
          "name": "account",
          "type": "address"
        }
      ],
      "name": "OwnableUnauthorizedAccount",
      "type": "error"
    },
    {
      "inputs": [],
      "name": "ReentrancyGuardReentrantCall",
      "type": "error"
    },
    {
      "anonymous": false,
      "inputs": [
        {
          "indexed": true,
          "internalType": "address",
          "name": "user",
          "type": "address"
        },
        {
          "indexed": true,
          "internalType": "address",
          "name": "token",
          "type": "address"
        },
        {
          "indexed": false,
          "internalType": "uint256",
          "name": "amount",
          "type": "uint256"
        },
        {
          "indexed": false,
          "internalType": "uint256",
          "name": "timestamp",
          "type": "uint256"
        }
      ],
      "name": "Deposit",
      "type": "event"
    },
    {
      "anonymous": false,
      "inputs": [
        {
          "indexed": true,
          "internalType": "address",
          "name": "previousOwner",
          "type": "address"
        },
        {
          "indexed": true,
          "internalType": "address",
          "name": "newOwner",
          "type": "address"
        }
      ],
      "name": "OwnershipTransferred",
      "type": "event"
    },
    {
      "anonymous": false,
      "inputs": [
        {
          "indexed": false,
          "internalType": "uint256",
          "name": "newPrice",
          "type": "uint256"
        },
        {
          "indexed": false,
          "internalType": "uint256",
          "name": "timestamp",
          "type": "uint256"
        }
      ],
      "name": "PriceUpdated",
      "type": "event"
    },
    {
      "anonymous": false,
      "inputs": [
        {
          "indexed": true,
          "internalType": "address",
          "name": "user",
          "type": "address"
        },
        {
          "indexed": false,
          "internalType": "uint256",
          "name": "ethAmount",
          "type": "uint256"
        },
        {
          "indexed": false,
          "internalType": "uint256",
          "name": "usdcAmount",
          "type": "uint256"
        },
        {
          "indexed": false,
          "internalType": "uint256",
          "name": "timestamp",
          "type": "uint256"
        }
      ],
      "name": "Rebalance",
      "type": "event"
    },
    {
      "anonymous": false,
      "inputs": [
        {
          "indexed": true,
          "internalType": "address",
          "name": "user",
          "type": "address"
        },
        {
          "indexed": true,
          "internalType": "address",
          "name": "token",
          "type": "address"
        },
        {
          "indexed": false,
          "internalType": "uint256",
          "name": "amount",
          "type": "uint256"
        },
        {
          "indexed": false,
          "internalType": "uint256",
          "name": "timestamp",
          "type": "uint256"
        }
      ],
      "name": "Withdrawal",
      "type": "event"
    },
    {
      "inputs": [
        {
          "internalType": "address",
          "name": "",
          "type": "address"
        },
        {
          "internalType": "address",
          "name": "",
          "type": "address"
        }
      ],
      "name": "balances",
      "outputs": [
        {
          "internalType": "uint256",
          "name": "",
          "type": "uint256"
        }
      ],
      "stateMutability": "view",
      "type": "function"
    },
    {
      "inputs": [
        {
          "internalType": "address",
          "name": "token",
          "type": "address"
        },
        {
          "internalType": "uint256",
          "name": "amount",
          "type": "uint256"
        }
      ],
      "name": "deposit",
      "outputs": [],
      "stateMutability": "nonpayable",
      "type": "function"
    },
    {
      "inputs": [
        {
          "internalType": "address",
          "name": "token",
          "type": "address"
        },
        {
          "internalType": "uint256",
          "name": "amount",
          "type": "uint256"
        }
      ],
      "name": "emergencyWithdraw",
      "outputs": [],
      "stateMutability": "nonpayable",
      "type": "function"
    },
    {
      "inputs": [],
      "name": "ethPriceInUsd",
      "outputs": [
        {
          "internalType": "uint256",
          "name": "",
          "type": "uint256"
        }
      ],
      "stateMutability": "view",
      "type": "function"
    },
    {
      "inputs": [
        {
          "internalType": "address",
          "name": "user",
          "type": "address"
        },
        {
          "internalType": "address",
          "name": "token",
          "type": "address"
        }
      ],
      "name": "getBalance",
      "outputs": [
        {
          "internalType": "uint256",
          "name": "",
          "type": "uint256"
        }
      ],
      "stateMutability": "view",
      "type": "function"
    },
    {
      "inputs": [
        {
          "internalType": "address",
          "name": "user",
          "type": "address"
        }
      ],
      "name": "getPortfolioValue",
      "outputs": [
        {
          "internalType": "uint256",
          "name": "",
          "type": "uint256"
        }
      ],
      "stateMutability": "view",
      "type": "function"
    },
    {
      "inputs": [],
      "name": "lastPriceUpdate",
      "outputs": [
        {
          "internalType": "uint256",
          "name": "",
          "type": "uint256"
        }
      ],
      "stateMutability": "view",
      "type": "function"
    },
    {
      "inputs": [],
      "name": "owner",
      "outputs": [
        {
          "internalType": "address",
          "name": "",
          "type": "address"
        }
      ],
      "stateMutability": "view",
      "type": "function"
    },
    {
      "inputs": [],
      "name": "renounceOwnership",
      "outputs": [],
      "stateMutability": "nonpayable",
      "type": "function"
    },
    {
      "inputs": [
        {
          "internalType": "address",
          "name": "",
          "type": "address"
        }
      ],
      "name": "totalDeposits",
      "outputs": [
        {
          "internalType": "uint256",
          "name": "",
          "type": "uint256"
        }
      ],
      "stateMutability": "view",
      "type": "function"
    },
    {
      "inputs": [
        {
          "internalType": "address",
          "name": "newOwner",
          "type": "address"
        }
      ],
      "name": "transferOwnership",
      "outputs": [],
      "stateMutability": "nonpayable",
      "type": "function"
    },
    {
      "inputs": [
        {
          "internalType": "uint256",
          "name": "_newPrice",
          "type": "uint256"
        }
      ],
      "name": "updateEthPrice",
      "outputs": [],
      "stateMutability": "nonpayable",
      "type": "function"
    },
    {
      "inputs": [],
      "name": "usdc",
      "outputs": [
        {
          "internalType": "contract IERC20",
          "name": "",
          "type": "address"
        }
      ],
      "stateMutability": "view",
      "type": "function"
    },
    {
      "inputs": [],
      "name": "weth",
      "outputs": [
        {
          "internalType": "contract IERC20",
          "name": "",
          "type": "address"
        }
      ],
      "stateMutability": "view",
      "type": "function"
    },
    {
      "inputs": [
        {
          "internalType": "address",
          "name": "token",
          "type": "address"
        },
        {
          "internalType": "uint256",
          "name": "amount",
          "type": "uint256"
        }
      ],
      "name": "withdraw",
      "outputs": [],
      "stateMutability": "nonpayable",
      "type": "function"
    }
  ],
  "bytecode": "0x6080346101a457610cef90601f38839003908101601f19168201906001600160401b038211838310176101a857808391604095869485528339810103126101a457610055602061004e836101bc565b92016101bc565b90331561018d575f549160018060a01b03908160018060a01b03199333858716175f55865195823391167f8be0079c531659141344cd1fd0a4f28419497f9722a3daafe3b4186f6b6457e05f80a360017f9b779b17422d0df92223018b32b4d1fa46e071723d6817e2486d003becc55f005568bdbc41e0348b3000006005551693841561014b5750169182156101075781600154161760015560025416176002554260065551610b1e90816101d18239f35b835162461bcd60e51b815260206004820152601b60248201527f5745544820616464726573732063616e6e6f74206265207a65726f00000000006044820152606490fd5b62461bcd60e51b815260206004820152601b60248201527f5553444320616464726573732063616e6e6f74206265207a65726f00000000006044820152606490fd5b8251631e4fbdf760e01b81525f6004820152602490fd5b5f80fd5b634e487b7160e01b5f52604160045260245ffd5b51906001600160a01b03821682036101a45756fe604060808152600480361015610013575f80fd5b5f3560e01c806321370942146107fa5780633e413bee146107d25780633fc8cef3146107aa57806347e7ef2414610657578063683e0bcd146106395780636949faeb1461061b578063715018a6146105c45780638c81e4d11461051d5780638da5cb5b146104f657806395ccea6714610420578063c23f001f146103d7578063d4fac45d14610358578063e940325614610322578063f2fde38b146102965763f3fef3a3146100c0575f80fd5b346102925781600319360112610292576100d8610892565b91602435916100e5610aa6565b6001546001600160a01b039485169461010a9181168614908115610284575b506108be565b335f5260209060038252825f20855f52825283835f20541061024c5781846101a092610137821515610900565b610142331515610941565b335f5260038352855f20885f528352855f2061015f838254610a6e565b9055875f52808352855f20610175838254610a6e565b9055855163a9059cbb60e01b8152339181019182526020820192909252909283918291604090910190565b03815f895af1908115610242577fc2b4a290c20fb28939d29f102514fbffd2b73c059ffba8b78250c94161d5fcc69392916101e2915f91610215575b506109cc565b815193845242908401523392a360017f9b779b17422d0df92223018b32b4d1fa46e071723d6817e2486d003becc55f0055005b6102359150833d851161023b575b61022d818361097e565b8101906109b4565b5f6101dc565b503d610223565b83513d5f823e3d90fd5b915162461bcd60e51b8152918201526014602482015273496e73756666696369656e742062616c616e636560601b6044820152606490fd5b90506002541685145f610104565b5f80fd5b5034610292576020366003190112610292576102b0610892565b906102b9610a7b565b6001600160a01b0391821692831561030c5750505f54826bffffffffffffffffffffffff60a01b8216175f55167f8be0079c531659141344cd1fd0a4f28419497f9722a3daafe3b4186f6b6457e05f80a3005b905f6024925191631e4fbdf760e01b8352820152fd5b509034610292576020366003190112610292576020916001600160a01b03610348610892565b165f528252805f20549051908152f35b8234610292578060031936011261029257602090610374610892565b61037c6108a8565b906001600160a01b03908116906103b090610398831515610a2b565b80806001541694169384149081156103c957506108be565b5f5260038352815f20905f528252805f20549051908152f35b905060025416831486610104565b82346102925780600319360112610292576020906103f3610892565b6103fb6108a8565b9060018060a01b038091165f5260038452825f2091165f528252805f20549051908152f35b5034610292578160031936011261029257610439610892565b610441610a7b565b5f8054845163a9059cbb60e01b81526001600160a01b03918216858201908152602435602082810191909152919491938593849283906040010393165af1908115610242575f916104d7575b501561049557005b6020606492519162461bcd60e51b8352820152601b60248201527f456d657267656e6379207769746864726177616c206661696c656400000000006044820152fd5b6104f0915060203d60201161023b5761022d818361097e565b5f61048d565b8234610292575f366003190112610292575f5490516001600160a01b039091168152602090f35b5090346102925760209182600319360112610292576001600160a01b039081610544610892565b1691610551831515610a2b565b825f5260038552835f2081600154165f528552835f2054925f5260038552835f2090600254165f528452825f205490600554918281029281840414901517156105b1575090670de0b6b3a76400006105aa920490610a0a565b9051908152f35b601190634e487b7160e01b5f525260245ffd5b34610292575f366003190112610292576105dc610a7b565b5f80546001600160a01b0319811682556001600160a01b03167f8be0079c531659141344cd1fd0a4f28419497f9722a3daafe3b4186f6b6457e08280a3005b8234610292575f366003190112610292576020906006549051908152f35b8234610292575f366003190112610292576020906005549051908152f35b509034610292578060031936011261029257610671610892565b906024359061067e610aa6565b6001546001600160a01b03938416936106a2918116851490811561079c57506108be565b6106ad821515610900565b6106b8331515610941565b80516323b872dd60e01b81523385820152306024820152604481018390529360209081866064815f895af1958615610242577fdcbc1c05240f31ff3ad067ef1ee35ce4997762752e3a095284754544f4c709d794959661071e915f9161078557506109cc565b335f5260038252825f20865f528252825f2061073b868254610a0a565b9055855f528152815f20610750858254610a0a565b9055815193845242908401523392a360017f9b779b17422d0df92223018b32b4d1fa46e071723d6817e2486d003becc55f0055005b6102359150843d861161023b5761022d818361097e565b90506002541684145f610104565b8234610292575f3660031901126102925760025490516001600160a01b039091168152602090f35b8234610292575f3660031901126102925760015490516001600160a01b039091168152602090f35b509034610292576020366003190112610292578135610817610a7b565b8015610856577f945c1c4e99aa89f648fbfe3df471b916f719e16d960fcec0737d4d56bd696838925080600555426006558151908152426020820152a1005b815162461bcd60e51b815260208185015260166024820152755072696365206d75737420626520706f73697469766560501b6044820152606490fd5b600435906001600160a01b038216820361029257565b602435906001600160a01b038216820361029257565b156108c557565b60405162461bcd60e51b8152602060048201526013602482015272151bdad95b881b9bdd081cdd5c1c1bdc9d1959606a1b6044820152606490fd5b1561090757565b60405162461bcd60e51b81526020600482015260126024820152710416d6f756e74206d757374206265203e20360741b6044820152606490fd5b1561094857565b60405162461bcd60e51b815260206004820152600e60248201526d24b73b30b634b21039b2b73232b960911b6044820152606490fd5b90601f8019910116810190811067ffffffffffffffff8211176109a057604052565b634e487b7160e01b5f52604160045260245ffd5b90816020910312610292575180151581036102925790565b156109d357565b60405162461bcd60e51b815260206004820152600f60248201526e151c985b9cd9995c8819985a5b1959608a1b6044820152606490fd5b91908201809211610a1757565b634e487b7160e01b5f52601160045260245ffd5b15610a3257565b60405162461bcd60e51b8152602060048201526014602482015273496e76616c69642075736572206164647265737360601b6044820152606490fd5b91908203918211610a1757565b5f546001600160a01b03163303610a8e57565b60405163118cdaa760e01b8152336004820152602490fd5b7f9b779b17422d0df92223018b32b4d1fa46e071723d6817e2486d003becc55f006002815414610ad65760029055565b604051633ee5aeb560e01b8152600490fdfea2646970667358221220e111064b50830e798fe393480b12e8709d8014c2c10c104c6ef14102e88ff0b964736f6c63430008180033",
  "linkReferences": {},
  "deployedLinkReferences": {}
}